{
  "transactions": [
    {
      "hash": "0x2ee7b9eb946a2b97a23a78344508bf9d4074d282077bc16b6f72f5ec4489c16d",
      "transactionType": "CALL",
      "contractName": null,
      "contractAddress": "0xdc11f523c329a2ca31247a266526e05354186934",
      "function": "createAutoPool(string)",
      "arguments": [
        "Distribution Pool"
      ],
      "transaction": {
        "from": "0x0ce46bb78c522c4c007562269262224131990530",
        "to": "0xdc11f523c329a2ca31247a266526e05354186934",
        "gas": "0x273f2",
        "value": "0x0",
        "input": "0x1d73bc3400000000000000000000000000000000000000000000000000000000000000200000000000000000000000000000000000000000000000000000000000000011446973747269627574696f6e20506f6f6c000000000000000000000000000000",
        "nonce": "0x4b",
        "chainId": "0x66eee"
      },
      "additionalContracts": [],
      "isFixedGasLimit": false
    },
    {
      "hash": "0x445fc82f7032184cd9e378b2509fcc89d85c16f11d01916f77cdcda15d6cf864",
      "transactionType": "CALL",
      "contractName": null,
      "contractAddress": "0xdc11f523c329a2ca31247a266526e05354186934",
      "function": "addAddressesToPool(uint256,address[],uint256[])",
      "arguments": [
        "1",
        "[0xd69D16FE42107C122369b512ca56A7E17e5AA094, 0x59a8f4eddCC76Ca1349aF08FB144A1FE29832673]",
        "[30000000000000000000, 70000000000000000000]"
      ],
      "transaction": {
        "from": "0x0ce46bb78c522c4c007562269262224131990530",
        "to": "0xdc11f523c329a2ca31247a266526e05354186934",
        "gas": "0x373f5",
        "value": "0x0",
        "input": "0xd3a3b7c00000000000000000000000000000000000000000000000000000000000000001000000000000000000000000000000000000000000000000000000000000006000000000000000000000000000000000000000000000000000000000000000c00000000000000000000000000000000000000000000000000000000000000002000000000000000000000000d69d16fe42107c122369b512ca56a7e17e5aa09400000000000000000000000059a8f4eddcc76ca1349af08fb144a1fe298326730000000000000000000000000000000000000000000000000000000000000002000000000000000000000000000000000000000000000001a055690d9db80000000000000000000000000000000000000000000000000003cb71f51fc5580000",
        "nonce": "0x4c",
        "chainId": "0x66eee"
      },
      "additionalContracts": [],
      "isFixedGasLimit": false
    },
    {
      "hash": "0x5eae4cee2c8033d47e606bc2734ee308ee627a2c8af45777b768d703711219e5",
      "transactionType": "CALL",
      "contractName": null,
      "contractAddress": "0x421eeef4f73c23b976a8aa82b5dd74999260adac",
      "function": "approve(address,uint256)",
      "arguments": [
        "0xdc11F523C329a2ca31247a266526e05354186934",
        "100000000000000000000"
      ],
      "transaction": {
        "from": "0x0ce46bb78c522c4c007562269262224131990530",
        "to": "0x421eeef4f73c23b976a8aa82b5dd74999260adac",
        "gas": "0x100e5",
        "value": "0x0",
        "input": "0x095ea7b3000000000000000000000000dc11f523c329a2ca31247a266526e053541869340000000000000000000000000000000000000000000000056bc75e2d63100000",
        "nonce": "0x4d",
        "chainId": "0x66eee"
      },
      "additionalContracts": [],
      "isFixedGasLimit": false
    },
    {
      "hash": "0x38011524c65a1f0eb09865eac8d170c2b85cd5fd1f6d16bd25fb5425666d0196",
      "transactionType": "CALL",
      "contractName": null,
      "contractAddress": "0xdc11f523c329a2ca31247a266526e05354186934",
      "function": "addTokenToPool(uint256,address,uint256)",
      "arguments": [
        "1",
        "0x421eEeF4f73c23B976a8AA82b5DD74999260adAc",
        "100000000000000000000"
      ],
      "transaction": {
        "from": "0x0ce46bb78c522c4c007562269262224131990530",
        "to": "0xdc11f523c329a2ca31247a266526e05354186934",
        "gas": "0x23e61",
        "value": "0x0",
        "input": "0x08d98ba80000000000000000000000000000000000000000000000000000000000000001000000000000000000000000421eeef4f73c23b976a8aa82b5dd74999260adac0000000000000000000000000000000000000000000000056bc75e2d63100000",
        "nonce": "0x4e",
        "chainId": "0x66eee"
      },
      "additionalContracts": [],
      "isFixedGasLimit": false
    },
    {
      "hash": "0x5fd7f2484a49e80eb1ce11e0d09057917bf951d5f67291d090dbbe59ceaa1d54",
      "transactionType": "CALL",
      "contractName": null,
      "contractAddress": "0xdc11f523c329a2ca31247a266526e05354186934",
      "function": "distributeToAll(uint256,uint256)",
      "arguments": [
        "1",
        "2"
      ],
      "transaction": {
        "from": "0x0ce46bb78c522c4c007562269262224131990530",
        "to": "0xdc11f523c329a2ca31247a266526e05354186934",
        "gas": "0x31047",
        "value": "0x0",
        "input": "0xac7be03200000000000000000000000000000000000000000000000000000000000000010000000000000000000000000000000000000000000000000000000000000002",
        "nonce": "0x4f",
        "chainId": "0x66eee"
      },
      "additionalContracts": [],
      "isFixedGasLimit": false
    }
  ],
  "receipts": [
    {
      "status": "0x1",
      "cumulativeGasUsed": "0x1db4d",
      "logs": [
        {
          "address": "0xdc11f523c329a2ca31247a266526e05354186934",
          "topics": [
            "0x6605480140c3e48aa670705846435e8f492d1a17179ff2f4bcb70a54e1f8e7fc",
            "0x0000000000000000000000000000000000000000000000000000000000000001"
          ],
          "data": "0x000000000000000000000000000000000000000000000000000000000000004000000000000000000000000000000000000000000000000000000000000000000000000000000000000000000000000000000000000000000000000000000011446973747269627574696f6e20506f6f6c000000000000000000000000000000",
          "blockHash": "0xaf64ac712c769e485545227a908dcec066ae29b155e0818462c01b7cfd0e1669",
          "blockNumber": "0x61f5483",
          "transactionHash": "0x2ee7b9eb946a2b97a23a78344508bf9d4074d282077bc16b6f72f5ec4489c16d",
          "transactionIndex": "0x1",
          "logIndex": "0x0",
          "removed": false
        }
      ],
      "logsBloom": "0x00000000000000000000000000000000000000000000000000000000080000000000000000000000000000000000000000000000000000000000000000040000000000000000000000000000000000000000000000040000000000000000000000000000000000000000000000000000008000000000000100000000000000000040000000000000000000000000000000000000000000000000000000000000000000000000000000000000000000000000000000000000000000000000000000000000000000000000000000000000000000020000000000000000000040000000000800000000000000000000000000000000000000000000000000000000",
      "type": "0x2",
      "transactionHash": "0x2ee7b9eb946a2b97a23a78344508bf9d4074d282077bc16b6f72f5ec4489c16d",
      "transactionIndex": "0x1",
      "blockHash": "0xaf64ac712c769e485545227a908dcec066ae29b155e0818462c01b7cfd0e1669",
      "blockNumber": "0x61f5483",
      "gasUsed": "0x1db4d",
      "effectiveGasPrice": "0x5f5e100",
      "from": "0x0ce46bb78c522c4c007562269262224131990530",
      "to": "0xdc11f523c329a2ca31247a266526e05354186934",
      "contractAddress": null,
      "gasUsedForL1": "0xda1",
      "l1BlockNumber": "0x6dcbcc"
    },
    {
      "status": "0x1",
      "cumulativeGasUsed": "0x299ae",
      "logs": [
        {
          "address": "0xdc11f523c329a2ca31247a266526e05354186934",
          "topics": [
            "0x27ee52fadc4933dec5d7365eb4ca740d2712c4a5dd19e2a1862b5e7a5e5e5bdf",
            "0x0000000000000000000000000000000000000000000000000000000000000001"
          ],
          "data": "0x0000000000000000000000000000000000000000000000000000000000000002",
          "blockHash": "0x43642255a0260891b03b4f440db9d0bd4a4932ae3561ee93c20e60267b837ee2",
          "blockNumber": "0x61f548b",
          "transactionHash": "0x445fc82f7032184cd9e378b2509fcc89d85c16f11d01916f77cdcda15d6cf864",
          "transactionIndex": "0x1",
          "logIndex": "0x0",
          "removed": false
        }
      ],
      "logsBloom": "0x00000000000000000000000000000000000000000000000000000000000000000000000000000000000000000000000000000000000000000000000000040000000000000000000000000000000000000000000000040000000000000100000000000000000000000000000000000000008000000000000100000000000000000040000000000000000000000000000000000000000000000000000000000000000000000000100000000000000000000000000000000000000000000000000000000000000000000000000000000000000000000000000000000000000040000000000000000000080000000000000000000000000000000000000000000000",
      "type": "0x2",
      "transactionHash": "0x445fc82f7032184cd9e378b2509fcc89d85c16f11d01916f77cdcda15d6cf864",
      "transactionIndex": "0x1",
      "blockHash": "0x43642255a0260891b03b4f440db9d0bd4a4932ae3561ee93c20e60267b837ee2",
      "blockNumber": "0x61f548b",
      "gasUsed": "0x299ae",
      "effectiveGasPrice": "0x5f5e100",
      "from": "0x0ce46bb78c522c4c007562269262224131990530",
      "to": "0xdc11f523c329a2ca31247a266526e05354186934",
      "contractAddress": null,
      "gasUsedForL1": "0x12b9",
      "l1BlockNumber": "0x6dcbcc"
    },
    {
      "status": "0x1",
      "cumulativeGasUsed": "0xc0c1",
      "logs": [
        {
          "address": "0x421eeef4f73c23b976a8aa82b5dd74999260adac",
          "topics": [
            "0x8c5be1e5ebec7d5bd14f71427d1e84f3dd0314c0f7b2291e5b200ac8c7c3b925",
            "0x0000000000000000000000000ce46bb78c522c4c007562269262224131990530",
            "0x000000000000000000000000dc11f523c329a2ca31247a266526e05354186934"
          ],
          "data": "0x0000000000000000000000000000000000000000000000056bc75e2d63100000",
          "blockHash": "0xc9c878e35c566af3a2b12e21043c22313ea70bd5b9333128b1b252114469e173",
          "blockNumber": "0x61f5492",
          "transactionHash": "0x5eae4cee2c8033d47e606bc2734ee308ee627a2c8af45777b768d703711219e5",
          "transactionIndex": "0x1",
          "logIndex": "0x0",
          "removed": false
        }
      ],
      "logsBloom": "0x00000000000000000000000000000000000000000000000000000000000000000000000000000000000000000000000000000040000000000000000000200000000000000000004000000000000000000000000000000000000000000000000000000000000000000000000008000000000000000000000000000000200000000000000000000020000000000000000000800000000000000000000000000000020000000000000000000000200001000000000000000000000000000000000000000000000000000000000000000000000000000002000000000000000000000010000000000000000000000000000000000000000000000000000000000000",
      "type": "0x2",
      "transactionHash": "0x5eae4cee2c8033d47e606bc2734ee308ee627a2c8af45777b768d703711219e5",
      "transactionIndex": "0x1",
      "blockHash": "0xc9c878e35c566af3a2b12e21043c22313ea70bd5b9333128b1b252114469e173",
      "blockNumber": "0x61f5492",
      "gasUsed": "0xc0c1",
      "effectiveGasPrice": "0x5f5e100",
      "from": "0x0ce46bb78c522c4c007562269262224131990530",
      "to": "0x421eeef4f73c23b976a8aa82b5dd74999260adac",
      "contractAddress": null,
      "gasUsedForL1": "0xb97",
      "l1BlockNumber": "0x6dcbcc"
    },
    {
      "status": "0x1",
      "cumulativeGasUsed": "0x31737",
      "logs": [
        {
          "address": "0x421eeef4f73c23b976a8aa82b5dd74999260adac",
          "topics": [
            "0xddf252ad1be2c89b69c2b068fc378daa952ba7f163c4a11628f55a4df523b3ef",
            "0x0000000000000000000000000ce46bb78c522c4c007562269262224131990530",
            "0x000000000000000000000000dc11f523c329a2ca31247a266526e05354186934"
          ],
          "data": "0x0000000000000000000000000000000000000000000000056bc75e2d63100000",
          "blockHash": "0x453e82c83deac8f55f02aaed1c1c23cd77bfd041627c4b8021760ed9aa8c8068",
          "blockNumber": "0x61f549b",
          "transactionHash": "0x38011524c65a1f0eb09865eac8d170c2b85cd5fd1f6d16bd25fb5425666d0196",
          "transactionIndex": "0x2",
          "logIndex": "0x2",
          "removed": false
        },
        {
          "address": "0xdc11f523c329a2ca31247a266526e05354186934",
          "topics": [
            "0xc66f07cbb74380805a36a10d280ea1dc56d78d18e1d32bb0718c5d3b71a3b330",
            "0x0000000000000000000000000000000000000000000000000000000000000001"
          ],
          "data": "0x000000000000000000000000421eeef4f73c23b976a8aa82b5dd74999260adac0000000000000000000000000000000000000000000000056bc75e2d63100000",
          "blockHash": "0x453e82c83deac8f55f02aaed1c1c23cd77bfd041627c4b8021760ed9aa8c8068",
          "blockNumber": "0x61f549b",
          "transactionHash": "0x38011524c65a1f0eb09865eac8d170c2b85cd5fd1f6d16bd25fb5425666d0196",
          "transactionIndex": "0x2",
          "logIndex": "0x3",
          "removed": false
        }
      ],
      "logsBloom": "0x00000000000000000000000000000000000000000000000000000000000000000000000000000000000000000000000000000040000000000000000000040000000000000000004000000008000000000000000000040000000000000000000000000000000000000000000008000000008600000000000100000010200000000040000000001020000000000000000000800000000000000000000000000000000000000000000000000000200001000000000000000000000000000000000000000002000000000000000000000000000000000002000000000000000040000000000000000000000000000000000000000000000000000000000000000000",
      "type": "0x2",
      "transactionHash": "0x38011524c65a1f0eb09865eac8d170c2b85cd5fd1f6d16bd25fb5425666d0196",
      "transactionIndex": "0x2",
      "blockHash": "0x453e82c83deac8f55f02aaed1c1c23cd77bfd041627c4b8021760ed9aa8c8068",
      "blockNumber": "0x61f549b",
      "gasUsed": "0x1ad79",
      "effectiveGasPrice": "0x5f5e100",
      "from": "0x0ce46bb78c522c4c007562269262224131990530",
      "to": "0xdc11f523c329a2ca31247a266526e05354186934",
      "contractAddress": null,
      "gasUsedForL1": "0xda1",
      "l1BlockNumber": "0x6dcbce"
    },
    {
      "status": "0x1",
      "cumulativeGasUsed": "0x967db",
      "logs": [
        {
          "address": "0x421eeef4f73c23b976a8aa82b5dd74999260adac",
          "topics": [
            "0xddf252ad1be2c89b69c2b068fc378daa952ba7f163c4a11628f55a4df523b3ef",
            "0x000000000000000000000000dc11f523c329a2ca31247a266526e05354186934",
            "0x000000000000000000000000d69d16fe42107c122369b512ca56a7e17e5aa094"
          ],
          "data": "0x000000000000000000000000000000000000000000000001a055690d9db80000",
          "blockHash": "0x853a5611128cbeea9036003eb41f735065f72509016f556a4e05f8e225f26612",
          "blockNumber": "0x61f54a3",
          "transactionHash": "0x5fd7f2484a49e80eb1ce11e0d09057917bf951d5f67291d090dbbe59ceaa1d54",
          "transactionIndex": "0x2",
          "logIndex": "0x2",
          "removed": false
        },
        {
          "address": "0xdc11f523c329a2ca31247a266526e05354186934",
          "topics": [
            "0x7ebec69a24f70f6adc732c5d495ea40faf1248f959f11feafe0f9bbdc4e07b5a",
            "0x0000000000000000000000000000000000000000000000000000000000000001"
          ],
          "data": "0x000000000000000000000000d69d16fe42107c122369b512ca56a7e17e5aa094000000000000000000000000000000000000000000000001a055690d9db80000",
          "blockHash": "0x853a5611128cbeea9036003eb41f735065f72509016f556a4e05f8e225f26612",
          "blockNumber": "0x61f54a3",
          "transactionHash": "0x5fd7f2484a49e80eb1ce11e0d09057917bf951d5f67291d090dbbe59ceaa1d54",
          "transactionIndex": "0x2",
          "logIndex": "0x3",
          "removed": false
        },
        {
          "address": "0x421eeef4f73c23b976a8aa82b5dd74999260adac",
          "topics": [
            "0xddf252ad1be2c89b69c2b068fc378daa952ba7f163c4a11628f55a4df523b3ef",
            "0x000000000000000000000000dc11f523c329a2ca31247a266526e05354186934",
            "0x00000000000000000000000059a8f4eddcc76ca1349af08fb144a1fe29832673"
          ],
          "data": "0x000000000000000000000000000000000000000000000003cb71f51fc5580000",
          "blockHash": "0x853a5611128cbeea9036003eb41f735065f72509016f556a4e05f8e225f26612",
          "blockNumber": "0x61f54a3",
          "transactionHash": "0x5fd7f2484a49e80eb1ce11e0d09057917bf951d5f67291d090dbbe59ceaa1d54",
          "transactionIndex": "0x2",
          "logIndex": "0x4",
          "removed": false
        },
        {
          "address": "0xdc11f523c329a2ca31247a266526e05354186934",
          "topics": [
            "0x7ebec69a24f70f6adc732c5d495ea40faf1248f959f11feafe0f9bbdc4e07b5a",
            "0x0000000000000000000000000000000000000000000000000000000000000001"
          ],
          "data": "0x00000000000000000000000059a8f4eddcc76ca1349af08fb144a1fe29832673000000000000000000000000000000000000000000000003cb71f51fc5580000",
          "blockHash": "0x853a5611128cbeea9036003eb41f735065f72509016f556a4e05f8e225f26612",
          "blockNumber": "0x61f54a3",
          "transactionHash": "0x5fd7f2484a49e80eb1ce11e0d09057917bf951d5f67291d090dbbe59ceaa1d54",
          "transactionIndex": "0x2",
          "logIndex": "0x5",
          "removed": false
        },
        {
          "address": "0xdc11f523c329a2ca31247a266526e05354186934",
          "topics": [
            "0xe931a2ade2ca5ad4fb6fc001fa5a3d7f2d8c05b601e8322cba7e5f513512314d",
            "0x0000000000000000000000000000000000000000000000000000000000000001"
          ],
          "data": "0x",
          "blockHash": "0x853a5611128cbeea9036003eb41f735065f72509016f556a4e05f8e225f26612",
          "blockNumber": "0x61f54a3",
          "transactionHash": "0x5fd7f2484a49e80eb1ce11e0d09057917bf951d5f67291d090dbbe59ceaa1d54",
          "transactionIndex": "0x2",
          "logIndex": "0x6",
          "removed": false
        }
      ],
      "logsBloom": "0x00000000000000000000000000000020000000008000000000000000000000000000000000020000000000000000000000004440000000000000000000040000000000000000004000000008000000000000000000040000000000000000000000000000000000020000000008000000008000000000000100000010000000000040000000000020000000000000000000800000000000000000000000000000000000000000000002000000002001000000000000000000040000000000000000000002000000000000000000000000000000000000000000000000000040000000000000010000000000000000001000000000000000000000000000000200",
      "type": "0x2",
      "transactionHash": "0x5fd7f2484a49e80eb1ce11e0d09057917bf951d5f67291d090dbbe59ceaa1d54",
      "transactionIndex": "0x2",
      "blockHash": "0x853a5611128cbeea9036003eb41f735065f72509016f556a4e05f8e225f26612",
      "blockNumber": "0x61f54a3",
      "gasUsed": "0x223da",
      "effectiveGasPrice": "0x5f5e100",
      "from": "0x0ce46bb78c522c4c007562269262224131990530",
      "to": "0xdc11f523c329a2ca31247a266526e05354186934",
      "contractAddress": null,
      "gasUsedForL1": "0xb97",
      "l1BlockNumber": "0x6dcbce"
    }
  ],
  "libraries": [],
  "pending": [],
  "returns": {},
  "timestamp": 1733136931,
  "chain": 421614,
  "commit": "4f4c0d0"
}